:020000040000fa
:080000000001040000000000f3
:020000040000fa
:100008001622000016220000162200001622000008
:1000180016220000162200001622000016220000f8
:10002800162200001622000016220000cc1900003b
:1000380016220000162200001622000016220000d8
:10004800162200001622000016220000f6190000f1
:1000580016220000162200001622000016220000b8
:1000680016220000162200001622000016220000a8
:100078001622000016220000162200001622000098
:100088001622000016220000162200001622000088
:100098001622000016220000162200001622000078
:1000a8001622000016220000162200001622000068
:1000b8001622000016220000162200001622000058
:1000c8001622000016220000162200001622000048
:1000d8001622000016220000162200001622000038
:1000e8001622000016220000162200001622000028
:0800f800162200001622000090
:020000040000fa
:100108001622000016220000162200001622000007
:1001180016220000162200001622000016220000f7
:10012800162200001622000016220000cc1900003a
:1001380016220000162200001622000016220000d7
:10014800162200001622000016220000f6190000f0
:1001580016220000162200001622000016220000b7
:1001680016220000162200001622000016220000a7
:100178001622000016220000162200001622000097
:100188001622000016220000162200001622000087
:100198001622000016220000162200001622000077
:1001a8001622000016220000162200001622000067
:1001b8001622000016220000162200001622000057
:1001c8001622000016220000162200001622000047
:1001d8001622000016220000162200001622000037
:1001e8001622000016220000162200001622000027
:0801f80016220000162200008f
:020000040000fa
:100200008f8220000eff20000e01880000000000f9
:10021000000020000000e000020032000001200089
:10022000200288000c00070080202200010020002e
:1002300011000700000020000000e0000200320072
:100240000000020000000000722002000000000018
:100250000040da000000fe004440a90000a6200093
:100260000000e0000300320000002000a001880030
:100270004440a8000000060091018800800078003a
:100280000000eb0015003700e280400032a0b4000f
:100290009101ba00e280400032a0b4009102ba009d
:1002a000e280400032a0b4000002eb00472bde00e9
:1002b000f507b200602ce10004003a000059eb00a1
:1002c0008301e900fdff3e00040037006128e100e2
:1002d000010032000082eb00040007001101ba00a7
:1002e0000200e000e8ff3a00000006003159ba00c1
:1002f0008301e9000c0032002159ba008301e900b2
:10030000080032000400e00003003a00e2804000f0
:1003100032a0b400f5ff370011d9ba008301e9001b
:10032000faff3a008100e800e180400032a0b4000a
:1003300000000600000000000000000000000000b7
:10034000000000000000fa008c60a90005e1a9008f
:100350008460a9000080fa00000006000200fa0094
:10036000000f78008460a9001e0278000442780023
:100370006742620067426200674262000482fb00db
:10038000670262004c22dd00a6048000f5ff280011
:100390008502630005027200a40488009e027800b2
:1003a000688262004322de000442780061426200fb
:1003b0000482fb00610262004322dd0066048000cb
:1003c00075ff2f0085026300050272006404880037
:1003d0000080fa00000006000400fa00000f780018
:1003e000110798000002eb00040888001e0290002c
:1003f000140888001e027800240888000080fa0093
:10040000000006000000fa000408800004007800e4
:100410000080fa00000006000200fa00000f7800d9
:100420001e027800040888000080fa000000060020
:100430006410800066026200e60f52000100320084
:10044000f00fb200801088000000060003f0a20048
:10045000889fbe008a9fbe008c1f7800f6000700b0
:10046000fd0033006450e1004f0032006420e100e1
:100470005200320003826c0007003b000905d000e7
:100480000306d000820f54000c065d000200390004
:100490000200320089017800030678008582550049
:1004a00004003d000003fd008103fd008502ea0019
:1004b0008b854200840f720002003b006000100038
:1004c000e08018006011b8000005eb007a28e10018
:1004d0000a00390006007800c75ddd00f707b200aa
:1004e000878075002d003700828171000a01780035
:1004f000610560008180d1000080d3008502e900a1
:10050000f9ff3b00060440008784480002003b00de
:1005100060041400e0841c000988a3000700320076
:100520008a81710082817100610164008904d100b7
:100530000884d3008b05e800170037000978a30072
:1005400013003a000b00e000130034008b05e900b3
:100550000804440089844c000a4474000978a3000c
:100560000d003a000b00e000070034008b05e900a5
:100570000804440089844c0001003a000b0020006c
:100580000978a300f7ff32000001eb0002003700fa
:10059000828171000a0178006c0007000cf0a7004e
:1005a00001f0a000b50037006420e10002003a002d
:1005b000838f6c00b50033000801be000200be004e
:1005c000ae003700889fbe008a9fbe008c1f780057
:1005d00099000700a000330003866c006450e1001e
:1005e0002e0032006420e100330032006150e1004f
:1005f0002f0032006120e100310032008585550076
:10060000eb07b000090020000804200005003700b7
:100610000804440089844c000a00310006034300aa
:1006200087834b000001530081815b00f8ff33009a
:100630000203be000800a0000804440089844c00a6
:10064000f6ff3900c639dd00830173000100320076
:10065000130020008904d1000884d3000998a30066
:10066000050032000800a7000300a0008904d100a3
:100670000884d3008b05e8008904d1000884d300e6
:100680000001eb000281d2003000070001f0a10060
:100690000cf0a70001f0a000780037006420e10012
:1006a0007a0032000801be000200be00f7ff3700ea
:1006b0006120e100750032006000b800f3ff3700f0
:1006c0000000200001f82700f0ff37000001be0005
:1006d000440007000470a70003f0a10003f8a30082
:1006e00013003a006509b10010003200090035001e
:1006f0006928e10002003500010028000000050023
:1007000000004000818048008502e900fcff3a00bb
:1007100000000600f88f4200050035008100d1007e
:100720000080d3008502e800fcff3a0000000600cc
:100730008000eb00000005004f89de008201780098
:10074000890037006011b800970037008100200051
:10075000618055000b003d000b00200061fe2f0062
:100760000100e1001d00340082817100610164001c
:100770008904d1000884d3000000e800faff3a00a1
:10078000710020006100640003007000020060003e
:100790000900320061044400e0844c000988a5008f
:1007a000050032008b05e8006808e10002003a000d
:1007b0008904d1000884d300f20f20000258e10020
:1007c00005003d00c75ddd00f907b20089807500b6
:1007d00008007800000006000bf827008b00780066
:1007e00000000500c70ade00f107b200f50fb200f5
:1007f00008003200e1cf4200020032000170a00088
:1008000024000500810f700001003200040805007b
:1008100044000500810f700002003a00140005003a
:100820008502e9000000400081c04800fcff3b0059
:100830000170a000240005000004be00e9ff0700cd
:100840000003be000405be000200be00e5ff070075
:10085000844f7500000006000200be006450e100f5
:10086000050036006420e100020036000968a3009c
:1008700001003a000800be000160a0004f067800a9
:100880004f05be004f04be0000000600f0ff2f0021
:10089000f1ff2700f9ff3700889fbe008a9fbe0046
:1008a0008c1f7800e4ff0700ebff330003866c0029
:1008b0006450e100240032006420e100270032008f
:1008c0006150e100220032006120e100210032008d
:1008d0008b854200eb07b1000134b800003ab80044
:1008e0000804420089844a00013ab8000030b80088
:1008f0008880400009014a000400330000004000e5
:1009000081804800020149008b05e900c909dd002a
:10091000830170000100320013002000c814de00c3
:100920004814dd004709de001200b200c808de00ee
:100930000884700085ff070001f0a1000cf0a700fb
:1009400001f0a000cdff37006120e100cfff3200b1
:100950000801be000200be00f7ff37006150e10051
:10096000fcff3a00c9ff3700881f780003047800b5
:100970000300e00007003d0060001000e080180068
:1009800060011900e081190002003b0001f02d0018
:10099000030037000400070008f0a70001f0a000e2
:1009a0004f04780000000600889fbe008a9fbe00aa
:1009b000008270000402710004827100260032007f
:1009c0000004be000200be006011b8006b092000e8
:1009d000950220000182cf000a0039000541b100d4
:1009e0000082cf00070039000541b1000982cf0025
:1009f000040039000541b1000882cf000100390030
:100a00000541b10005425200120032000a003b00cd
:100a100082817100610164008100d1000080d300f7
:100a20008984d3000884d3008b05e8000442e800e1
:100a3000f7ff3a00070037000804440089844c009f
:100a400000004800818048008b05e9000442e9006d
:100a5000f9ff3a003dff07004f05be004f04be00fe
:040a6000000006008c
:020000040000fa
:100a64000000000000000000000000000000000082
:100a74000000000000000000000000000000000072
:100a8400000000003eff0000ff3e000000000000e8
:100a940000000000000d00000d0000000000000038
:100aa4000004000007030000000400000703000026
:100ab4000000000000000000000000000000000032
:100ac40010fe0000fe10000010fe0000fe100000ea
:100ad400010f00000f010000010f00000f010000d2
:100ae4001c3e000022ff0000ff420000ce8c0000ec
:100af40003070000040f00000f04000007030000b8
:100b04000000000006c60000f03c00000e020000d9
:100b140000040000070300000006000006000000b7
:100b24001e3f0000e1c10000412100003f1e000003
:100b3400060f0000090900000b0c00001e1600003f
:100b44000000000004070000030000000000000093
:100b54000000000000000000000000000000000091
:100b640000000000f8fe0000070100000000000083
:100b740000000000000700000e0800000000000054
:100b84000000000001070000fef800000000000063
:100b940000000000080e0000070100000000000033
:100ba40020a80000f870000070f80000a8200000e1
:100bb4000000000000000000000000000000000031
:100bc4002020000020fc0000fc2000002020000069
:100bd400000000000001000001000000000000000f
:100be4000000000000000000000000000000000001
:100bf40000000000203c00001c0000000000000079
:100c040020200000202000002020000020200000e0
:100c140000000000000000000000000000000000d0
:100c240000000000000000000000000000000000c0
:100c340000000000000c00000c0000000000000098
:100c44000000000000c00000f03c00000f030000a2
:100c5400000c00000f030000000000000000000072
:100c6400feff00000101000001010000fffe000082
:100c7400070f000008080000080800000f07000024
:100c84000004000006ff0000ff0000000000000058
:100c940000080000080f00000f0800000800000012
:100ca4000203000081c10000613100001f0e00003a
:100cb4000e0f00000908000008080000080c0000de
:100cc400020300000121000021210000ffde0000da
:100cd400040c000008080000080800000f070000ca
:100ce400e0f00000988c000086ff0000ff00000088
:100cf4000000000000000000080f00000f080000c2
:100d04003f3f00002121000021210000e1c100003b
:100d1400040c000008080000080800000f07000089
:100d2400fcfe00002321000021210000e0c000009f
:100d3400070f000008080000080800000f07000063
:100d44000303000001810000e17900001f07000097
:100d540000000000000f00000f0000000000000071
:100d6400deff00002121000021210000ffde000041
:100d7400070f000008080000080800000f07000023
:100d84001e3f00002121000021210000fffe000081
:100d94000008000008080000080c00000703000019
:100da400000000000018000018000000000000000f
:100db4000000000000060000060000000000000023
:100dc40000000000001800001800000000000000ef
:100dd40000000000101e00000e00000000000000d3
:100de40040e00000b01800000c0600000200000003
:100df4000000000001030000060c000008000000d1
:100e040000a00000a0a00000a0a00000a00000001e
:100e140000000000000000000000000000000000ce
:100e240000020000060c000018b00000e0400000c2
:100e3400000800000c060000030100000000000090
:100e44000203000001c10000e13100001f0e000098
:100e540000000000000d00000d0000000000000074
:100e64000203000001c10000e13100001f0e000078
:100e740000000000000d00000d0000000000000054
:100e8400f8fc00008683000083860000fcf8000064
:100e94000f0f000000000000000000000f0f000012
:100ea400ffff00002121000021210000ffde0000df
:100eb4000f0f000008080000080800000f070000da
:100ec400fcfe000003010000010100000306000015
:100ed400030700000c080000080800000c060000ce
:100ee40001ff0000ff01000001030000fefc000000
:100ef400080f00000f080000080c000007030000a2
:100f040001ff0000ff210000217100000303000025
:100f1400080f00000f080000080800000c0c000077
:100f240001ff0000ff210000217100000303000005
:100f3400080f00000f08000000000000000000007f
:100f4400fcfe00000301000041410000c3c6000094
:100f5400030700000c08000008080000070f000049
:100f6400ffff00002020000020200000ffff000001
:100f74000f0f000000000000000000000f0f000031
:100f84000001000001ff0000ff010000010000005b
:100f940000080000080f00000f080000080000000f
:100fa400000000000000000001ff0000ff0100003d
:100fb400060e000008080000080f000007000000eb
:100fc40001ff0000ff700000d88c00000703000040
:100fd400080f00000f000000000100000f0e0000c9
:100fe40001ff0000ff0100000000000000000000fd
:100ff400080f00000f080000080800000c0c000097
:10100400ffff00000c780000780c0000ffff0000d8
:101014000f0f000000000000000000000f0f000090
:10102400ffff00001c38000070e00000ffff00001c
:101034000f0f000000000000000000000f0f000070
:10104400feff00000101000001010000fffe00009e
:10105400070f000008080000080800000f07000040
:1010640001ff0000ff210000212100003f1e0000bd
:10107400080f00000f08000000000000000000003e
:10108400feff00000101000001010000fffe00005e
:10109400070f0000080e00001c3800002f07000096
:1010a40001ff0000ff21000021610000ff9e0000fd
:1010b400080f00000f080000000000000f0f0000e0
:1010c4000e1f00003121000021610000c7860000ce
:1010d400060e000008080000080800000f070000c2
:1010e4000303000001ff0000ff01000003030000f0
:1010f40000000000080f00000f08000000000000be
:10110400ffff00000000000000000000ffff0000df
:10111400070f000008080000080800000f0700007f
:10112400ffff00000000000000000000ffff0000bf
:1011340001030000060c00000c060000030100007f
:10114400ffff000000e00000e0000000ffff0000df
:10115400010f00000e030000030e00000f01000049
:10116400070f000098f00000f09800000f0700003f
:101174000e0f000001000000000100000f0e00002f
:101184000f1f000030e00000e03000001f0f0000df
:1011940000000000080f00000f080000000000001d
:1011a40003830000c1610000311900000f07000033
:1011b4000f0f000008080000080800000c0c0000d5
:1011c40000000000ffff000001010000000000001b
:1011d400000000000f0f00000808000000000000dd
:1011e40055aa000055aa000055aa000055aa0000ff
:1011f40055aa000055aa000055aa000055aa0000ef
:101204000000000001010000ffff000000000000da
:1012140000000000080800000f0f0000000000009c
:10122400080c000006030000030600000c08000080
:1012340000000000000000000000000000000000aa
:10124400000000000000000000000000000000009a
:10125400101000001010000010100000101000000a
:1012640000000000080f000007000000000000005c
:10127400000000000000000000000000000000006a
:10128400009000009090000090f00000e00000004a
:10129400070f000008080000080700000f080000fe
:1012a40001ff0000ff10000010300000e0c000004b
:1012b400080f000007080000080800000f070000de
:1012c400e0f00000101000001010000030200000ba
:1012d400070f000008080000080800000c040000c4
:1012e400c0e000003010000011ff0000ff0000000b
:1012f400070f000008080000080700000f0800009e
:10130400e0f000009090000090900000f0e00000f9
:10131400070f000008080000080800000c04000083
:1013240000100000feff0000111100000302000085
:10133400000800000f0f000008000000000000007b
:10134400e0f000001010000010e00000f0100000b9
:10135400276f000048480000487f00003f0000005d
:1013640001ff0000ff20000010100000f0e000006a
:10137400080f00000f000000000000000f0f000025
:101384000010000010f60000f6000000000000004d
:1013940000080000080f00000f080000080000000b
:1013a4000000000010100000f6f60000000000002d
:1013b40030600000404000007f3f0000000000005b
:1013c40001ff0000ffc00000c060000030100000fa
:1013d400080f00000f000000010300000e0c0000c5
:1013e4000001000001ff0000ff00000000000000f9
:1013f40000080000080f00000f08000008000000ab
:10140400f0f0000030e00000e0300000f0e0000008
:101414000f0f000000070000070000000f0f00007e
:1014240010f00000e010000010100000f0e00000d8
:10143400000f00000f000000000000000f0f00006c
:10144400e0f000001010000010100000f0e00000b8
:10145400070f000008080000080800000f0700003c
:1014640010f00000e010000010100000f0e0000098
:10147400407f00007f480000080800000f070000bc
:10148400e0f000001010000010e00000f010000078
:10149400070f000008080000487f00007f4000009c
:1014a40010f00000e01000001010000030200000d8
:1014b400000f00000f00000000000000000000000a
:1014c40060f00000909000009010000030200000b8
:1014d400040c000008080000090900000f060000c1
:1014e40010100000feff00001010000000000000bb
:1014f40000000000070f0000080c000004000000ba
:10150400f0f000000000000000f00000f000000017
:10151400070f000008080000080700000f0800007b
:10152400f0f000000000000000000000f0f00000f7
:1015340001030000060c00000c060000030100007b
:10154400f0f000000080000080000000f0f00000d7
:10155400070f00000c070000070c00000f07000035
:101564001030000060c00000c060000030100000b7
:10157400080c000006030000030600000c0800002d
:10158400f0f000000000000000000000f0f0000097
:10159400474f000048480000486800003f1f000013
:1015a4003030000010900000d070000030100000b7
:1015b4000c0e00000b090000080800000c0c0000d1
:1015c400000000000000000000000000005f0000b8
:1015d40000000000000700000007000000140000e5
:1015e4007f1400007f140000242a00007f2a0000da
:1015f4001223000013080000646200003649000052
:101604005522000050000000050300000000000007
:10161400001c0000224100000000000041220000e4
:101624001c000000082a00001c2a00000808000012
:10163400083e0000080800000050000030000000d0
:10164400000800000808000008080000003000003e
:101654003000000000200000100800000402000018
:101664003e510000494500003e000000427f00005a
:101674004000000042610000514900004621000082
:10168400414500004b31000018140000127f000097
:101694001027000045450000453900003c4a000081
:1016a40049490000300100007109000005030000f1
:1016b4003649000049490000360600004949000047
:1016c400291e000000360000360000000000000063
:1016d400563600000000000000080000142200003c
:1016e40041140000141400001414000041220000ee
:1016f4001408000000020000015100000906000067
:1017040032490000794100003e7e000011110000c2
:10171400117e00007f49000049490000363e000068
:1017240041410000412200007f41000041220000ad
:101734001c7f000049490000494100007f09000066
:1017440009010000013e0000414100005132000047
:101754007f080000080800007f000000417f0000af
:101764004100000020400000413f0000017f0000d4
:1017740008140000224100007f40000040400000a7
:10178400407f000002040000027f00007f0400008c
:10179400081000007f3e000041410000413e00006f
:1017a4007f09000009090000063e000041510000c5
:1017b400215e00007f090000192900004646000050
:1017c4004949000049310000010100007f01000087
:1017d400013f000040400000403f00001f20000087
:1017e400402000001f7f000020180000207f000020
:1017f4006314000008140000630300000478000070
:10180400040300006151000049450000430000004a
:10181400007f0000414100000204000008100000a5
:1018240020410000417f000000000000040200008d
:10183400010200000440000040400000404000005d
:1018440000010000020400000020000054540000c5
:10185400547800007f4800004444000038380000f9
:101864004444000044200000384400004448000080
:101874007f3800005454000054180000087e000013
:10188400090100000208000014540000543c000048
:101894007f0800000404000078000000447d00007c
:1018a4004000000020400000443d00000000000013
:1018b4007f10000028440000004100007f40000029
:1018c400007c000004180000047800007c0800007c
:1018d4000404000078380000444400004438000048
:1018e4007c14000014140000080800001414000004
:1018f400187c00007c080000040400000848000074
:101904005454000054200000043f000044400000f0
:10191400203c000040400000207c00001c2000000f
:10192400402000001c3c000040300000403c00000f
:101934004428000010280000440c0000505000000f
:10194400503c000044640000544c0000440000007b
:101954000836000041000000000000007f00000085
:1019640000000000413600000800000008080000e4
:101974002a1c0000080800001c2a000008080000b7
:101984000000000000000000000000000000000053
:101994000000000000000000000000000000000043
:1019a4000000000000000000000000000000000033
:1019b4000000000000000000000000000000000023
:101dc400546500006d7000006572000061740000cd
:101dd40075720000613a00002020000000540000e9
:101de400656d00007065000072610000747500008c
:101df400726100003a2000000020000064650000c9
:101e040067000000427200006f6a0000206f00004b
:101e140062720000746100006a6100003a200000f0
:101e240000420000726f00006a2000006f62000030
:101e340072740000616a0000613a00000020000032
:101e4400525000004d000000537400006570000003
:101e5400656e000020700000726500006e6f000067
:101e6400736100003a20000000420000727a000012
:101e7400696e0000613a000020200000002000008c
:101e84006b6d00007068000000420000727a000070
:101e9400696e0000613a00002000000054650000f3
:101ea4006d7000006f6d0000617400003a20000046
:101eb40000200000204f00004e000000204f0000d2
:101ec4004646000000420000727a0000696e00007d
:101ed400612000006e6900006a6500002073000044
:101ee400657400006f760000616e000061210000df
:101ef40000420000727a0000696e00006120000058
:101f04006a65000020730000657400006f760000ad
:101f1400616e00006121000020200000000000002c
:020000040000fa
:101f24000200fa00004f78001e427800e04f520091
:101f3400050032001517800004022000050272001b
:101f4400141788000400370015178000f4fd2f00d3
:101f540004826200141788000080fa000000060062
:101f64000200fa00004f78001e427800e04f520051
:101f740004003200141780000440a00014178800e5
:101f84000400370015178000f4fe2f00048262005d
:101f9400141788000080fa00000006000200fa000e
:101fa400004f78001e427800e04f520004003200d7
:101fb400141780000410a0001417880004003700d0
:101fc40015178000d4ff2f000482620014178800c4
:101fd4000080fa00000006000200fa00004f7800ba
:101fe4001e427800e04f52000400320014178000b3
:101ff4000400a0001417880004003700151780009f
:10200400e4ff2f0004826200141788000080fa00a5
:10201400000006000200fa00004f78001e4278001b
:10202400e04f5200050032005516800004022000e3
:10203400050272005416880004003700551680000b
:10204400f4fd2f0004826200541688000080fa0018
:10205400000006000200fa00004f78001e427800db
:10206400e04f520004003200541680000440a000e7
:10207400541688000400370055168000f4fe2f0023
:1020840004826200541688000080fa0000000600f2
:102094000000fa00dea2a900de82a900de22a90067
:1020a400de02a900a8a2a800c6a2a900a882a800ce
:1020b400c682a900a802a800c602a900a822a800f6
:1020c400c622a900a842a800c642a900a862a80086
:1020d400c662a900d202a900d222a900d242a90054
:1020e400d262a9000080fa00000006000200fa0093
:1020f400004f78001e427800e04f520008003a007a
:10210400d202a900d222a900d242a900d262a90017
:10211400c662a900c642a900c622a900c602a90037
:102124001e427800e14f520008003a00d202a80093
:10213400d222a800d242a800d262a800c662a80097
:10214400c642a800c622a800c602a8000080fa0061
:10215400000006000400fa00204798002e42900078
:10216400044f7800b516800004ff2f00048262003b
:10217400b41688005516800004ff2f000482620004
:10218400541688009e4278006fc26200144798007b
:102194001e4290008482fb005416800005027200e7
:1021a400541688009e4278000582fb004422de001b
:1021b400044f78001e4278008482fb00b41680002d
:1021c40005027200b41688000080fa0000000600c0
:1021d4000200fa00a4168000044f78009e427800a2
:1021e40044002000042add00044f780044168000d7
:1021f400144798001e4290006f42620014479800f2
:102204001e4290001e424200144798001e42900055
:10221400044078000080fa00000006000000fa0084
:1022240010c0b3004eff07000040eb004cff070056
:102234000080fa00000006000200fa00004f780057
:102244000040eb0064ff07000040eb0053ff070071
:102254001e407800bfff0700f0ff07000080fa006f
:10226400000006000400fa00100798000002eb00ca
:10227400040f7800010037001e0fe8001e029000d2
:102284009e027800848f5200fbff39000080fa0020
:10229400000006000200fa000040eb004eff0700b9
:1022a40010c0b3003dff070010c0b3008fff07004c
:1022b40010c0b3002aff0700c5ff070000427800e2
:1022c400044f78000040eb0025ff070003003700af
:1022d400bfff070000427800044f78001e427800d8
:1022e400e04f5200faff35000080fa0000000600bb
:1022f4000200fa00004f7800f4c3b3009e42780055
:1023040084cf52000b003e0010c0b3003d00070014
:1023140004c4b3001e42720004407800c6ff0700e4
:1023240014c0b3000443780065822000864a780014
:10233400100037001e427800e04f52000d003500b7
:102344000040eb002f00070004ccb3001e42420003
:102354008442780004c4b30004c2720004407800cc
:10236400b5ff07000042eb000443780065822000bb
:10237400864a78009e42780044822000054a78000c
:102384000080fa00000006000200fa00004f780006
:102394001e427800e74f520007003e0084cbb30092
:1023a4001e42720004407800a3ff07009e4278009a
:1023b40054822000054a78000080fa0000000600dc
:1023c4000200fa00004f7800114798001e40780080
:1023d400c7ff07001e409000ebff07000080fa00d3
:1023e400000006000200fa00004f780004ccb3009d
:1023f4001e427200044078008fff07000080fa003c
:10240400000006000200fa00004f78000040eb00d4
:10241400f1fe07001e427800e04f52000d003a0022
:102424000040eb00ddfe070010c0b30009ff070009
:102434000040eb00f7fe0700f0c3b3007eff070087
:102444000042eb000443780065822000864a78004d
:102454000c0037000040eb00d0fe07000040eb000a
:10246400fcfe070010c0b300eafe0700f0c3b3008f
:1024740071ff070014c0b300044378006582200094
:10248400864a78000080fa00000006000200fa0084
:1024940010c0b30015ff070010c0b300cefe070044
:1024a40010c0b300bdfe07005cff070010c0b300fe
:1024b400abfe070046ff070000427800044f780097
:1024c4000040eb00a6fe07000040eb0007ff0700fa
:1024d4000040eb00c0fe07000040eb00affe070029
:1024e4001e427800044078000080fa0000000600d4
:1024f4000000fa000040eb0016ff07000040eb006c
:10250400b5fe07000040eb00a4fe07000040eb000e
:1025140093fe07000040eb00cefe07000040eb00f6
:10252400bcfe070010c0b3007dfe0700a000200021
:102534004cff07000040eb0079fe0700a0002000dc
:1025440048ff070010c0b30075fe070010c0b300b9
:10255400acff0700e0c3b30037ff070000ccb300b3
:1025640035ff070080cbb30033ff070000c4b3007e
:1025740031ff0700f0c3b3002fff07000040eb005a
:10258400a0ff0700e0c3b3002bff070000ccb3009b
:1025940029ff070080cbb30027ff070000c4b30066
:1025a40025ff0700f0c3b30023ff07000080fa00f3
:1025b400000006000200fa00004f780010c0b300cb
:1025c40085fe07000040eb0074fe07001e40780003
:1025d400e0fe070011ff07000080fa00000006007b
:1025e4000200fa000042eb00144798001d00370077
:1025f4009e4090000040eb0071ff07000042eb009a
:10260400044f7800030037000040eb00e9ff0700a7
:102614001e4fe800f4c3b3009e42780084cf5200fa
:10262400f9ff36009e40900000c4b30064ff070029
:102634000042eb00044f7800030037000040eb0039
:10264400dcff07001e4fe800f4c3b3009e4278008d
:1026540084cf5200f9ff36001e4290000442e80085
:10266400144798001e429000e74f5200e0ff3600e6
:102674000080fa00000006000200fa000042eb00ad
:10268400144798001d0037009e4090000040eb0066
:102694004bff07000042eb00044f780003003700b3
:1026a40000c0eb00c3ff07001e4fe800f4c3b300f3
:1026b4009e42780084cf5200f9ff36009e4090007d
:1026c40000c4b3003eff07000042eb00044f780053
:1026d4000300370000c0eb00b6ff07001e4fe80000
:1026e400f4c3b3009e42780084cf5200f9ff360051
:1026f4001e4290000442e800144798001e429000d5
:10270400e74f5200e0ff36000080fa0000000600a8
:102714000400fa00100798000042eb0014479800e8
:10272400300037009e4090000040eb0024ff07007b
:102734000042eb00044f78000c0037001e4290006a
:102744000482fb00c722dd001e4378000682fb00e2
:10275400048242009e0290000482420014427800e7
:102764000440780093ff07001e4fe800f4c3b30051
:102774009e42780084cf5200f0ff36009e409000c5
:1027840000c4b3000eff07000042eb00044f7800c2
:102794000d0037001e4290000482fb00c722dd00ba
:1027a4001e4378000682fb00048242000404b00049
:1027b4009e02900004824200144278000440780093
:1027c4007cff07001e4fe800f4c3b3009e4278006c
:1027d40084cf5200efff36001e4290000442e8000e
:1027e400144798001e429000e74f5200cdff360078
:1027f4000080fa00000006000400fa002047980058
:10280400314798000042eb00044f78003e429000ac
:102814000482fb004322de000442780084407800f6
:102824002e409000e6fe070018ff070000427800e3
:10283400044f78003e4290000482fb004322de00f5
:1028440004427800844078002e409000dcfe0700ab
:102854003e4290000482fb006702620015002000e3
:10286400042add00844278001e42780004c272000b
:10287400044078004fff07000080fa0000000600c3
:102884000400fa0020479800314798000042eb000a
:10289400044f78003e4290000482fb004322de0095
:1028a40004427800844078002e409000c4fe070063
:1028b400f6fe070000427800044f78003e42900084
:1028c4000482fb004322de00044278008440780046
:1028d4002e409000bafe07003e4290000482fb00a6
:1028e4006702620015002000042add00044278001b
:1028f40084c2ea001e42780004c2620004407800e8
:102904002cff07000080fa00000006000c00fa000b
:10291400004f9800114f9800224f98000002eb00de
:10292400040f78000002eb00140798000002eb008b
:10293400240798009e4a90000e4a900004c2520058
:10294400644798002e4a90000482fb001407980004
:102954002e4a90008482fb00e4ff2f0004aab900f1
:1029640004027800630f4200740037001e029000d6
:10297400844278001e4a900084c242002e029000d5
:10298400044378000e4a90000442430085407800d6
:102994000440780098ff07001e029000044278006b
:1029a4009e4a900084c252002e0290000443780094
:1029b4000e4a9000044243008540780004407800a9
:1029c4008dff07001e029000844278001e4a90008a
:1029d40084c242002e029000044278000e4b900004
:1029e40004425300854078000440780082ff0700c9
:1029f4001e029000044278009e4a900084c2520055
:102a04002e029000044278000e4b900004425300c2
:102a1400854078000440780077ff07002e0290007c
:102a2400844278001e4a900084c242001e02900034
:102a3400044378001e4a9000044343006e42900011
:102a44000442530085407800044078006aff070080
:102a54002e029000044278009e4a900084c25200e4
:102a64001e029000044378001e4a90000443430071
:102a74006e42900004425300854078000440780080
:102a84005dff07002e029000844278001e4a9000e9
:102a940084c242001e029000044278001e4b900043
:102aa400044353006e429000044253008540780072
:102ab4000440780050ff07002e0290000442780082
:102ac4009e4a900084c252001e0290000442780084
:102ad4001e4b9000044353006e4290000442530086
:102ae400854078000440780043ff07001e02780008
:102af400e00f520005003d002e0290004222dd004e
:102b0400660242001e0f420009003700ae02900028
:102b14001e029000048252004222dd006a0242003a
:102b24001e0f42001e0290000402e90014079800e0
:102b34002e0290000402e80024079800ae029000e0
:102b44001e029000848f520088ff34000080fa0037
:102b5400000006000600fa0020479800314798005c
:102b640042479800534798000042eb00044f780016
:102b74000042eb00044f78000b0037002e42900017
:102b84001e424200be409000044078001aff070035
:102b94002e4290001e424200de4090000440780025
:102ba40015ff07001e4fe8001e4278008482fb00d8
:102bb4004e4290000483fb002e4290000482fb00ee
:102bc400040253000402e800848f5200ebff350036
:102bd4000042eb00044f78000b0037003e429000a7
:102be4001e424200844078002e40900002ff0700fd
:102bf4003e4290001e424200844078004e409000c5
:102c0400fdfe07001e4fe8001e4278008482fb0090
:102c14005e4290000483fb003e4290000482fb006d
:102c2400040253000402e800848f5200ebff3500d5
:102c34000080fa00000006000600fa002047980011
:102c4400314798004247980053479800ae4290009d
:102c54004e42900084cf520021003a00be429000c0
:102c64005e42900084cf52000f0031003e4290003b
:102c74000482fb00040f7800060037001e0278006f
:102c840004427800844078002e409000dafe070069
:102c94001e0fe8005e4290000482fb009e0f52006b
:102ca400f6ff3e000e0037005e4290000482fb00f7
:102cb400040f7800060037001e02780004427800f2
:102cc400844078002e409000cbfe07001e0fe800e1
:102cd4003e4290000482fb009e0f5200f6ff3e002d
:102ce400be4290005e42900084cf520021003a0020
:102cf400ae4290004e42900084cf52000f0031004b
:102d04002e4290000482fb00040f78000600370076
:102d14001e02780004427800be409000044078000f
:102d2400b5fe07001e0fe8004e4290000482fb002f
:102d34009e0f5200f6ff3e000e0037004e429000f8
:102d44000482fb00040f7800060037001e0278009e
:102d540004427800be40900004407800a6fe0700bc
:102d64001e0fe8002e4290000482fb009e0f5200ca
:102d7400f6ff3e000080fa00000006000400fa009e
:102d84002047980044822000144278000482fb000b
:102d9400e5024200f4072000848f52001200340040
:102da40054822000144278000442e800044378006e
:102db40055822000864a780054822000144278000c
:102dc400e74f5200040036000042eb000443780051
:102dd40055822000864a78000042eb0004437800c4
:102de40045822000864a780055822000954278006a
:102df4004482200014427800854078000440780022
:102e04006ffd07000042eb00044f78001b00370001
:102e14002e4290000402fb006522b90004027800ef
:102e240005f62f00848242001e4378000682fb00d0
:102e34000482420025ae280065427a0004407800ee
:102e4400dcfd070044822000144278000442e800bc
:102e54000443780045822000864a78005582200089
:102e6400954278004482200014427800854078001e
:102e74000440780052fd07001e4fe8001e4278000f
:102e8400e44f5200e2ff36000040eb00c9fd0700aa
:102e940044822000144278000442e800044378008d
:102ea40045822000864a78000080fa00000006006f
:102eb4000400fa002047980044822000144278005d
:102ec4000482fb00e8024200f4072000848f5200d1
:102ed4001800340054822000144278000442e800b0
:102ee4000443780055822000864a780054822000ea
:102ef400144278000442e80004437800558220001c
:102f0400864a78005482200014427800e74f520029
:102f1400040036000042eb00044378005582200090
:102f2400864a78000042eb00044378004582200082
:102f3400864a78000042eb00044f780059003700bd
:102f44005582200095427800448220001442780083
:102f5400854078000440780019fd07002e42900057
:102f64000402fb000402b100c422dd001e43780009
:102f74000682fb00048242002553280065427a0041
:102f8400044078008bfd070054822000144278002e
:102f94000442e8008442780084cbb30004c2720087
:102fa40004407800a4fc0700458220009542780084
:102fb400f4c3b30084cf52000d003e0010c0b30030
:102fc40010fd0700458220009542780004c4b30038
:102fd40004c272000440780097fc070014c0b300d8
:102fe4000443780065822000864a78001300370085
:102ff4004482200014427800e04f52000f00350054
:103004000040eb00fffc0700458220009542780059
:1030140004ccb30004c242008442780004c4b30068
:1030240004c272000440780083fc07000042eb00f5
:103034000443780065822000864a78002e4290007e
:103044000402fb000402b100c422dd001e43780028
:103054000682fb00048242006802420025532800d5
:1030640065427a000440780052fd07004482200043
:10307400144278000442e8000443780045822000aa
:10308400864a7800558220009542780044822000c8
:10309400144278008540780004407800c8fc07009a
:1030a4001e4fe8001e427800e74f5200a4ff36008e
:1030b4000080fa00000006000200fa00000f780009
:1030c400050037001e02780014427800044078009e
:1030d4002aff07001e0fe8001e0278001442780041
:1030e400e04f5200f7ff3a000080fa0000000600ab
:1030f4000600fa00404798004e4290000482fb000c
:10310400cfa2de000400be008af507000002be0064
:103114006266260063fa23000400be0028f5070057
:103124000002be000400be0067f507000002be00f6
:10313400244798000042eb00044f78001400370045
:103144002e42900014479800070037009e409000dc
:103154001e407800a8fd07009e4290002e42900079
:1031640004c24200144798001e4290008482fb006f
:103174002e4290000482fb00060420000402530047
:10318400848f5200f1ff35001e427800634f4200e5
:10319400e4c7b3009e42780084cf5200e8ff3600b3
:1031a4004e42900004cfe9000f0037000042eb00cc
:1031b40014479800060037009e4090001e40780097
:1031c4008dfd07001e42900004c2e80014479800d9
:1031d4009e429000e4c3b30084cf5200f6ff360051
:1031e4004e4290001e4f4200b4c7b3009e42780086
:1031f40084cf5200edff36000080fa000000060084
:103204000600fa002047980031479800424798008a
:10321400534798000042eb00044f78000042eb0053
:10322400044f78000b0037002e4290001e424200eb
:10323400be4090000440780091fd07002e429000ab
:103244001e424200de409000044078008cfd0700de
:103254001e4fe8001e4278008482fb004e4290001c
:103264000483fb002e4290000482fb0004025300fe
:103274000402e800848f5200ebff35000042eb00ab
:10328400044f78000b0037003e4290001e4242007b
:10329400844078002e40900079fd07003e42900063
:1032a4001e424200844078004e40900074fd0700a6
:1032b4001e4fe8001e4278008482fb005e429000ac
:1032c4000483fb003e4290000482fb00040253008e
:1032d4000402e800848f5200ebff35000080fa00fe
:1032e400000006000200fa00000f7800140020001d
:1032f400144088000002eb00044088000000000035
:10330400044080009e0f5200fdff39000002eb00d4
:10331400144088000002eb00044088000080fa009a
:10332400000006000000fa0090ff2f000af40700d6
:103334000000eb0037f407006189290090f82d00a4
:1033440024f40700240880000440a0000450a000d6
:103354002408880005e1a9000080fa0000000600a6
:103364000400fa001007980090ff2f00faf30700fa
:103374000000eb0027f407001e029000040f780001
:103384009e00780090f82d0012f407000080fa00e7
:1033940000000600841f78003400f80004002000b8
:1033a400a40188000000fa000002eb000408880071
:1033b40014408000e10f520004003a0004408000f1
:1033c4000402e80004408800020037000002eb0019
:1033d400044088008460a9000080fa003400f900e9
:1033e4004f02780000400600841f78003400f80083
:1033f40004002000a40188000000fa0004148000e6
:103404002440880014148000344088008560a9009a
:103414000080fa003400f9004f02780000400600f2
:103424000000fa00d302a800d322a800dec2a8003c
:10343400c722a800c742a800c762a800c782a90083
:10344400a922a800a942a800a962a800a982a800ec
:103454000080fa00000006000400fa00100798003b
:103464009e029000843e2000110009008482d8004e
:1034740000027800044f78001e4278008482fb002a
:10348400c4f92f0004aab900040278009e02900037
:1034940004824200140798009e029000a4002000b9
:1034a400110009008482d80000027800044f7800db
:1034b40005c3b3001ec24200044078002ffe07007b
:1034c4001e4078008082fb0064ff2f0004aab9002c
:1034d400040278009e0290000482420014079800bf
:1034e4001e029000044278000443b00004407800b7
:1034f40022fe07000080fa00000006000400fa0023
:10350400100798009e029000843e200011000900dc
:103514008482d80000027800044f78001e427800ac
:103524008482fb0084c12f0004aab900040278003d
:103534009e02900004824200140798009e029000ac
:1035440044062000110009008482d800000278009b
:10355400044f780005c3b3001ec242000440780043
:1035640006fe07001e4078008082fb00c4f92f008d
:1035740004aab900040278009e029000048242006a
:10358400140798009e029000a40020001100090076
:103594008482d80000027800044f780005c3b30089
:1035a4001ec2420004407800f4fd07001e4078006b
:1035b4008082fb0064ff2f0004aab9000402780093
:1035c4009e02900004824200140798001e0290009c
:1035d400044278000443b00004407800e7fd07008b
:1035e4000080fa00000006000400fa0010079800aa
:1035f4009e029000843e2000110009008482d800bd
:1036040000027800044f780005c3b3001ec24200d4
:1036140004407800d9fd07001e4078008082fb003a
:1036240084c12f0004aab900040278009e0290000d
:1036340004824200140798009e0290004406200071
:10364400110009008482d80000027800044f780039
:1036540005c3b3001ec2420004407800c7fd070042
:103664001e4078008082fb00c4f92f0004aab90030
:10367400040278009e02900004824200140798001d
:103684009e029000a4002000110009008482d8004a
:1036940000027800044f780005c3b3001ec2420044
:1036a40004407800b5fd07001e4078008082fb00ce
:1036b40064ff2f0004aab900040278009e0290005f
:1036c40004824200140798001e029000044278000d
:1036d4000443b00004407800a8fd07000080fa000d
:1036e400000006000000fa002440800005002000cd
:1036f4000400be0012f407000002be00a2992900d3
:10370400332224000400be00adf307000002be0013
:103714000400be00ecf307000002be0004027800bf
:10372400444088008040eb000040eb0024fb07008d
:103734004540800034062000848f520006003e007d
:1037440020ee28005cfe070044408000040078005e
:1037540041ff07000500370010ef280056fe070060
:10376400444080000400780064ff0700f0ef280064
:1037740051fe07000080fa00000006000000fa0075
:1037840034408000050020000400be00ecf3070074
:103794000002be000200200003f423000400be0067
:1037a4003cf407000002be0002002000134624007f
:1037b4000400be0025f307000002be000400be00a2
:1037c400c1f307000002be000402780054408800e0
:1037d4000080fa00000006000000fa0011c0b300e7
:1037e4000040eb00f6fa070055408000743e2000cc
:1037f400848f520006003e0040f028002efe070091
:1038040054408000040078003cff070005003700a6
:1038140030f1280028fe070054408000040078009e
:1038240071ff070010f2280023fe07000080fa0051
:10383400000006000000fa00a51680000410200015
:1038440004826200e00f52001400320040012000a4
:10385400a4fe0700a5168000041020000482620064
:10386400e00f52000500320014c0b3008440780019
:10387400f0812000014878000100370000000000ba
:10388400a51680000410200004826200e00f52009c
:10389400fbff3a004001200092fe0700a5168000bd
:1038a4000420200004826200e00f52001400320061
:1038b400400120008bfe0700a51680000420200094
:1038c40004826200e00f52000500320014c0b3000d
:1038d4000443780005822000864a780001003700fe
:1038e40000000000a516800004202000048262006d
:1038f400e00f5200fbff3a004001200079fe070070
:10390400f481200014427800e04f52000600320097
:1039140094408000e40f520003003e009440800075
:103924000402e800944088000482200014427800d5
:10393400e04f52000600320094408000e00f520035
:1039440003003200944080000402e900944088009f
:1039540021c0b3000040eb0099fa070060f2280090
:10396400d5fd070094408000e00f520003003a00a8
:10397400e0c4b30001fd0700050037009440800057
:10398400044278000443b00004407800fbfc0700c4
:10399400f481200014427800e04f520037003200d6
:1039a4000042eb0084407800f08120000148780058
:1039b400a4408000c440880024dd210004000100ec
:1039c400a5408000c440800084825200a4002000ee
:1039d400110009008482d80000027800d4408800d5
:1039e40055408000f44a2000848f520006003e00b7
:1039f400544080000419b10054408800840220001f
:103a0400e440880005003700544080000432b100cf
:103a14005440880004052000e44088000002eb00c4
:103a24007440880012003700c5408000d4408000f4
:103a340004824200c4408800c4408000a44088003e
:103a440004da21000400010055408000e4408000b5
:103a540004824200544088005fff0700c012200027
:103a640020fe0700744080000402e80074408800cf
:103a740074408000e90f5200ebff360004822000fe
:103a840014427800e04f52002a0032000042eb005a
:103a94000443780005822000864a7800a440800010
:103aa400c440880024dd210004000100c5408000da
:103ab400a440800084825200a40020001100090068
:103ac4008482d80000027800d440880054408000ea
:103ad4000432b000544088000002eb0074408800b7
:103ae40011003700c5408000d44080000482520099
:103af400c4408800c4408000a440880004da210047
:103b040004000100544080000405b10054408800c2
:103b140031ff0700c0122000f2fd0700744080004e
:103b24000402e8007440880074408000e90f5200e9
:103b3400ecff36000080fa00000006000000fa00e6
:103b440031c0b3000040eb001dfa0700a54080001f
:103b540034062000848f520008003e0070f32800d1
:103b640055fd0700a4408000040078003afe0700d9
:103b740010f4280050fd07000700370070f42800f7
:103b84004dfd0700a4408000040078005bfe0700a0
:103b940010f4280048fd07000080fa000000060029
:103ba4000000fa0094408000050020005600200028
:103bb40007002000860f5200878f5a0073003e00d2
:103bc40004600100050037000700370017003700c4
:103bd4002c00370041003700560037000002eb008c
:103be400a440880069003700544080004438b10084
:103bf400050020000400be00d1f207000002be0050
:103c040062a8250033c523000400be0021f3070089
:103c14000002be000400be00abf207000002be00ba
:103c240004027800a4408800580037005440800003
:103c34004438b100050020000400be00c0f20700b3
:103c44000002be004203280073c323000400be0028
:103c540010f307000002be0002002000831c2400b1
:103c64000400be00f9f107000002be000400be001b
:103c740095f207000002be0004027800a440880008
:103c840042003700544080004438b1000500200051
:103c94000400be00aaf207000002be0062422e0029
:103ca40033c823000400be00faf207000002be007d
:103cb40002002000032224000400be00e3f10700f8
:103cc4000002be000400be007ff207000002be0036
:103cd40004027800a44088002c003700544080007f
:103ce4004438b100050020000400be0094f207002f
:103cf4000002be00c21e250083cb23000400be00c8
:103d0400e4f207000002be00020020008324240025
:103d14000400be00cdf107000002be000400be0096
:103d240069f207000002be0004027800a440880083
:103d340016003700544080004438b10005002000cc
:103d44000400be007ef207000002be0062a8250047
:103d540033cd23000400be00cef207000002be00f3
:103d640002002000032a24000400be00b7f107006b
:103d74000002be000400be0053f207000002be00b1
:103d840004027800a4408800000000000080fa00cb
:103d9400000006000000fa0041c0b3000040eb0040
:103da40087f9070000f52800c3fc0700e481200020
:103db40014427800e04f520003003200b0f52800ae
:103dc400bdfc07000200370000f62800bafc07001b
:103dd4000080fa00000006000000fa00451680008a
:103de4000420200004826200e00f5200140032001c
:103df400400120003bfd0700451680000420200000
:103e040004826200e00f52000500320014c0b300c7
:103e14000443780015822000864a780001003700a8
:103e24000000000045168000042020000482620087
:103e3400e00f5200fbff3a004001200029fd07007b
:103e44001482200014427800e04f520005003a002a
:103e540051c0b3000040eb0059f9070050f62800a8
:103e640095fc0700544080008440880057003700c8
:103e740051c0b3000040eb0051f90700b0f728002f
:103e84008dfc07002dff070053fe070069fe0700a5
:103e940014fe0700bfff070038fe07004516800028
:103ea4000440200004826200e00f5200140032003b
:103eb400400120000bfd070045168000044020004f
:103ec40004826200e00f52000500320014c0b30007
:103ed4000443780025822000864a780001003700d8
:103ee40000000000451680000440200004826200a7
:103ef400e00f5200fbff3a0040012000f9fc0700ec
:103f0400451680000480200004826200e00f520005
:103f14001400320040012000f2fc07004516800026
:103f24000480200004826200e00f52000500320089
:103f340014c0b3000443780035822000864a780018
:103f440001003700000000004516800004802000b6
:103f540004826200e00f5200fbff3a00400120009f
:103f6400e0fc070054408000e5fc2f0084824200fe
:103f740084408000848f520008003e003482200078
:103f840014427800e04f520004003a0024822000da
:103f940014427800e04f52000c0032000042eb0063
:103fa4000443780015822000864a78000042eb0022
:103fb4000443780035822000864a78000042eb00f2
:103fc4000443780025822000864a78001482200069
:103fd40014427800e04f5200a5ff3a000080fa0036
:103fe400000006000000fa008040eb000040eb00f7
:103ff40001fa0700803e2000bafc07008040eb0075
:10400400a0c0b300fcf90700803e2000b5fc070007
:10401400a1c0b3000040eb00f7f90700803e200088
:10402400b0fc07000080fa00000006000000fa005f
:104034000002eb00944088000002eb00444088003a
:104044000002eb00544088000042eb000443780077
:10405400f5812000864a78000042eb000443780092
:1040640005822000864a78000002eb00a440880004
:104074000002eb00b44088000002eb00c44088005a
:104084000002eb00d44088000002eb00e44088000a
:104094000042eb0004437800e5812000864a780062
:1040a4000002eb00844088000042eb0004437800e7
:1040b40015822000864a78000042eb000443780011
:1040c40025822000864a78000042eb0004437800f1
:1040d40035822000864a78000080fa00000006003d
:1040e4000000fa00007122009dfc07008700070011
:1040f4008d000700e6f70700c9fc0700fcf807007d
:1041040037f90700c9ff0700a1e2a80075fd070001
:104114004001200073fc070098fd0700aefd070076
:10412400400120006ffc0700c2fd07004001200091
:104134006cfc07009afe070080fe0700051780004c
:104144000404200004826200e00f520007003200e1
:1041540014c0b30004437800e5812000864a780047
:104164000cff07001cff0700e8ff37000042eb00cc
:1041740004437800e5812000864a780005ff0700a3
:10418400e2ff37000000fa0004032000a4108800b6
:104194000d42a8008d20a80075108000c4ff2f00d8
:1041a40004826200741088000de2a8000f42a80087
:1041b4000080fa00000006000200fa00000f7800f8
:1041c40000000000751080000410200004826200ca
:1041d400e00f5200fbff32006410800066026200b0
:1041e400e60f520003003a001e0278008410880093
:1041f40003003700f40f20001e02620084108800c0
:104204000080fa00000006000400fa00100798007d
:104214009e029000843e2000110009008482d80090
:1042240000027800044f78009e4278000582fb006b
:104234000403b000040078007cf007001e407800fe
:104244008082fb0084c12f0004aab9000402780014
:104254009e02900004824200140798009e0290007f
:1042640044062000110009008482d800000278006e
:10427400044f78009e4278000582fb000403b000de
:104284000400780069f007001e4078008082fb007b
:10429400c4f92f0004aab900040278009e02900019
:1042a40004824200140798009e029000a40020009b
:1042b400110009008482d80000027800044f7800bd
:1042c4009e4278000582fb000403b00004007800dd
:1042d40056f007001e4078008082fb0064ff2f0028
:1042e40004aab900040278009e02900004824200ed
:1042f400140798001e0290000403b0000400780024
:104304004af007000080fa00000006000000fa00ee
:10431400a8c2a900a8e2a900c6c2a800c6e2a800d3
:104324000080fa00000006000000fa00a1a2a90023
:10433400041580000480a1000490a10004158800e5
:10434400041580000450a0000460a0000470a000c4
:1043540004158800a022a8001415800004d0a00031
:1043640004e0a00004f0a00014158800a342a800f3
:10437400141580000420a1000430a0000440a10012
:104384000450a10014158800a222a900a202a900c9
:104394002515800004f02100050272002415880010
:1043a400a4e2a8002515800004fc2f00048262000a
:1043b400f401b30024158800a782a900a682a900ed
:1043c400341580000400a1000410a1000420a10001
:1043d4000430a10034158800341580000480a10045
:1043e4000490a10004a0a10004b0a1003415880029
:1043f400040c200054158800a042a8008560a80081
:0c4404008d60a8000080fa000000060097
:020000040000fa
:104410000008000024000000000000002408000044
:0c4420000400000000000000000000008c
:020000040000fa
:08442c000040da000000fe0070
:020000040000fa
:0200000401f009
:04000000e5bf000058
:020000040000fa
:0200000401f009
:04000400ff7f00007a
:00000001FF
